{
  "_format": "hh-sol-artifact-1",
  "contractName": "CrossChainSwapManager",
  "sourceName": "contracts/CrossChainSwapManager.sol",
  "abi": [
    {
      "inputs": [
        {
          "internalType": "address",
          "name": "_htlc",
          "type": "address"
        }
      ],
      "stateMutability": "nonpayable",
      "type": "constructor"
    },
    {
      "anonymous": false,
      "inputs": [
        {
          "indexed": true,
          "internalType": "address",
          "name": "oldRecipient",
          "type": "address"
        },
        {
          "indexed": true,
          "internalType": "address",
          "name": "newRecipient",
          "type": "address"
        }
      ],
      "name": "FeeRecipientUpdated",
      "type": "event"
    },
    {
      "anonymous": false,
      "inputs": [
        {
          "indexed": false,
          "internalType": "uint256",
          "name": "oldFee",
          "type": "uint256"
        },
        {
          "indexed": false,
          "internalType": "uint256",
          "name": "newFee",
          "type": "uint256"
        }
      ],
      "name": "FeeUpdated",
      "type": "event"
    },
    {
      "anonymous": false,
      "inputs": [
        {
          "indexed": true,
          "internalType": "address",
          "name": "previousOwner",
          "type": "address"
        },
        {
          "indexed": true,
          "internalType": "address",
          "name": "newOwner",
          "type": "address"
        }
      ],
      "name": "OwnershipTransferred",
      "type": "event"
    },
    {
      "anonymous": false,
      "inputs": [
        {
          "indexed": false,
          "internalType": "address",
          "name": "account",
          "type": "address"
        }
      ],
      "name": "Paused",
      "type": "event"
    },
    {
      "anonymous": false,
      "inputs": [
        {
          "indexed": true,
          "internalType": "bytes32",
          "name": "swapId",
          "type": "bytes32"
        },
        {
          "indexed": true,
          "internalType": "address",
          "name": "recipient",
          "type": "address"
        },
        {
          "indexed": false,
          "internalType": "bytes32",
          "name": "secret",
          "type": "bytes32"
        }
      ],
      "name": "SwapCompleted",
      "type": "event"
    },
    {
      "anonymous": false,
      "inputs": [
        {
          "indexed": true,
          "internalType": "bytes32",
          "name": "swapId",
          "type": "bytes32"
        },
        {
          "indexed": true,
          "internalType": "address",
          "name": "initiator",
          "type": "address"
        },
        {
          "indexed": true,
          "internalType": "address",
          "name": "token",
          "type": "address"
        },
        {
          "indexed": false,
          "internalType": "uint256",
          "name": "amount",
          "type": "uint256"
        },
        {
          "indexed": false,
          "internalType": "bytes32",
          "name": "hashLock",
          "type": "bytes32"
        },
        {
          "indexed": false,
          "internalType": "uint256",
          "name": "timelock",
          "type": "uint256"
        },
        {
          "indexed": false,
          "internalType": "string",
          "name": "targetChain",
          "type": "string"
        },
        {
          "indexed": false,
          "internalType": "string",
          "name": "targetAddress",
          "type": "string"
        }
      ],
      "name": "SwapInitiated",
      "type": "event"
    },
    {
      "anonymous": false,
      "inputs": [
        {
          "indexed": true,
          "internalType": "address",
          "name": "token",
          "type": "address"
        },
        {
          "indexed": false,
          "internalType": "uint256",
          "name": "minAmount",
          "type": "uint256"
        },
        {
          "indexed": false,
          "internalType": "uint256",
          "name": "maxAmount",
          "type": "uint256"
        }
      ],
      "name": "SwapLimitsUpdated",
      "type": "event"
    },
    {
      "anonymous": false,
      "inputs": [
        {
          "indexed": true,
          "internalType": "bytes32",
          "name": "swapId",
          "type": "bytes32"
        },
        {
          "indexed": true,
          "internalType": "address",
          "name": "recipient",
          "type": "address"
        }
      ],
      "name": "SwapRefunded",
      "type": "event"
    },
    {
      "anonymous": false,
      "inputs": [
        {
          "indexed": true,
          "internalType": "address",
          "name": "token",
          "type": "address"
        },
        {
          "indexed": false,
          "internalType": "bool",
          "name": "supported",
          "type": "bool"
        }
      ],
      "name": "TokenSupportUpdated",
      "type": "event"
    },
    {
      "anonymous": false,
      "inputs": [
        {
          "indexed": false,
          "internalType": "address",
          "name": "account",
          "type": "address"
        }
      ],
      "name": "Unpaused",
      "type": "event"
    },
    {
      "inputs": [],
      "name": "MAX_FEE_BASIS_POINTS",
      "outputs": [
        {
          "internalType": "uint256",
          "name": "",
          "type": "uint256"
        }
      ],
      "stateMutability": "view",
      "type": "function"
    },
    {
      "inputs": [
        {
          "internalType": "bytes32",
          "name": "swapId",
          "type": "bytes32"
        },
        {
          "internalType": "string",
          "name": "secret",
          "type": "string"
        }
      ],
      "name": "completeSwap",
      "outputs": [],
      "stateMutability": "nonpayable",
      "type": "function"
    },
    {
      "inputs": [
        {
          "internalType": "address",
          "name": "token",
          "type": "address"
        },
        {
          "internalType": "uint256",
          "name": "amount",
          "type": "uint256"
        }
      ],
      "name": "emergencyWithdraw",
      "outputs": [],
      "stateMutability": "nonpayable",
      "type": "function"
    },
    {
      "inputs": [],
      "name": "feeRecipient",
      "outputs": [
        {
          "internalType": "address",
          "name": "",
          "type": "address"
        }
      ],
      "stateMutability": "view",
      "type": "function"
    },
    {
      "inputs": [
        {
          "internalType": "bytes32",
          "name": "swapId",
          "type": "bytes32"
        }
      ],
      "name": "getSwap",
      "outputs": [
        {
          "internalType": "address",
          "name": "token",
          "type": "address"
        },
        {
          "internalType": "uint256",
          "name": "amount",
          "type": "uint256"
        },
        {
          "internalType": "address",
          "name": "initiator",
          "type": "address"
        },
        {
          "internalType": "string",
          "name": "targetChain",
          "type": "string"
        },
        {
          "internalType": "string",
          "name": "targetAddress",
          "type": "string"
        },
        {
          "internalType": "bool",
          "name": "completed",
          "type": "bool"
        },
        {
          "internalType": "bool",
          "name": "refunded",
          "type": "bool"
        }
      ],
      "stateMutability": "view",
      "type": "function"
    },
    {
      "inputs": [],
      "name": "htlc",
      "outputs": [
        {
          "internalType": "contract HashTimeLockContract",
          "name": "",
          "type": "address"
        }
      ],
      "stateMutability": "view",
      "type": "function"
    },
    {
      "inputs": [
        {
          "internalType": "address",
          "name": "token",
          "type": "address"
        },
        {
          "internalType": "uint256",
          "name": "amount",
          "type": "uint256"
        },
        {
          "internalType": "bytes32",
          "name": "hashLock",
          "type": "bytes32"
        },
        {
          "internalType": "uint256",
          "name": "timelock",
          "type": "uint256"
        },
        {
          "internalType": "string",
          "name": "targetChain",
          "type": "string"
        },
        {
          "internalType": "string",
          "name": "targetAddress",
          "type": "string"
        }
      ],
      "name": "initiateSwap",
      "outputs": [
        {
          "internalType": "bytes32",
          "name": "swapId",
          "type": "bytes32"
        }
      ],
      "stateMutability": "payable",
      "type": "function"
    },
    {
      "inputs": [
        {
          "internalType": "address",
          "name": "",
          "type": "address"
        }
      ],
      "name": "maxSwapAmounts",
      "outputs": [
        {
          "internalType": "uint256",
          "name": "",
          "type": "uint256"
        }
      ],
      "stateMutability": "view",
      "type": "function"
    },
    {
      "inputs": [
        {
          "internalType": "address",
          "name": "",
          "type": "address"
        }
      ],
      "name": "minSwapAmounts",
      "outputs": [
        {
          "internalType": "uint256",
          "name": "",
          "type": "uint256"
        }
      ],
      "stateMutability": "view",
      "type": "function"
    },
    {
      "inputs": [],
      "name": "owner",
      "outputs": [
        {
          "internalType": "address",
          "name": "",
          "type": "address"
        }
      ],
      "stateMutability": "view",
      "type": "function"
    },
    {
      "inputs": [],
      "name": "pause",
      "outputs": [],
      "stateMutability": "nonpayable",
      "type": "function"
    },
    {
      "inputs": [],
      "name": "paused",
      "outputs": [
        {
          "internalType": "bool",
          "name": "",
          "type": "bool"
        }
      ],
      "stateMutability": "view",
      "type": "function"
    },
    {
      "inputs": [
        {
          "internalType": "bytes32",
          "name": "swapId",
          "type": "bytes32"
        }
      ],
      "name": "refundSwap",
      "outputs": [],
      "stateMutability": "nonpayable",
      "type": "function"
    },
    {
      "inputs": [],
      "name": "renounceOwnership",
      "outputs": [],
      "stateMutability": "nonpayable",
      "type": "function"
    },
    {
      "inputs": [
        {
          "internalType": "address",
          "name": "newFeeRecipient",
          "type": "address"
        }
      ],
      "name": "setFeeRecipient",
      "outputs": [],
      "stateMutability": "nonpayable",
      "type": "function"
    },
    {
      "inputs": [
        {
          "internalType": "address",
          "name": "token",
          "type": "address"
        },
        {
          "internalType": "bool",
          "name": "supported",
          "type": "bool"
        }
      ],
      "name": "setSupportedToken",
      "outputs": [],
      "stateMutability": "nonpayable",
      "type": "function"
    },
    {
      "inputs": [
        {
          "internalType": "uint256",
          "name": "newFeeBasisPoints",
          "type": "uint256"
        }
      ],
      "name": "setSwapFee",
      "outputs": [],
      "stateMutability": "nonpayable",
      "type": "function"
    },
    {
      "inputs": [
        {
          "internalType": "address",
          "name": "token",
          "type": "address"
        },
        {
          "internalType": "uint256",
          "name": "minAmount",
          "type": "uint256"
        },
        {
          "internalType": "uint256",
          "name": "maxAmount",
          "type": "uint256"
        }
      ],
      "name": "setSwapLimits",
      "outputs": [],
      "stateMutability": "nonpayable",
      "type": "function"
    },
    {
      "inputs": [
        {
          "internalType": "address",
          "name": "",
          "type": "address"
        }
      ],
      "name": "supportedTokens",
      "outputs": [
        {
          "internalType": "bool",
          "name": "",
          "type": "bool"
        }
      ],
      "stateMutability": "view",
      "type": "function"
    },
    {
      "inputs": [],
      "name": "swapFeeBasisPoints",
      "outputs": [
        {
          "internalType": "uint256",
          "name": "",
          "type": "uint256"
        }
      ],
      "stateMutability": "view",
      "type": "function"
    },
    {
      "inputs": [
        {
          "internalType": "bytes32",
          "name": "",
          "type": "bytes32"
        }
      ],
      "name": "swaps",
      "outputs": [
        {
          "internalType": "address",
          "name": "token",
          "type": "address"
        },
        {
          "internalType": "uint256",
          "name": "amount",
          "type": "uint256"
        },
        {
          "internalType": "address",
          "name": "initiator",
          "type": "address"
        },
        {
          "internalType": "string",
          "name": "targetChain",
          "type": "string"
        },
        {
          "internalType": "string",
          "name": "targetAddress",
          "type": "string"
        },
        {
          "internalType": "bool",
          "name": "completed",
          "type": "bool"
        },
        {
          "internalType": "bool",
          "name": "refunded",
          "type": "bool"
        }
      ],
      "stateMutability": "view",
      "type": "function"
    },
    {
      "inputs": [
        {
          "internalType": "address",
          "name": "newOwner",
          "type": "address"
        }
      ],
      "name": "transferOwnership",
      "outputs": [],
      "stateMutability": "nonpayable",
      "type": "function"
    },
    {
      "inputs": [],
      "name": "unpause",
      "outputs": [],
      "stateMutability": "nonpayable",
      "type": "function"
    }
  ],
  "bytecode": "0x60a060405260326003553480156200001657600080fd5b506040516200232a3803806200232a833981016040819052620000399162000127565b60016000556200004933620000d5565b6001805460ff60a01b191690556001600160a01b038116620000b15760405162461bcd60e51b815260206004820152601460248201527f496e76616c69642048544c432061646472657373000000000000000000000000604482015260640160405180910390fd5b6001600160a01b0316608052600480546001600160a01b0319163317905562000159565b600180546001600160a01b038381166001600160a01b0319831681179093556040519116919082907f8be0079c531659141344cd1fd0a4f28419497f9722a3daafe3b4186f6b6457e090600090a35050565b6000602082840312156200013a57600080fd5b81516001600160a01b03811681146200015257600080fd5b9392505050565b60805161219262000198600039600081816103a80152818161057e01528181610ccd01528181610e0d01528181610e5501526115b201526121926000f3fe6080604052600436106101405760003560e01c80638456cb59116100b6578063e4b23d0c1161006f578063e4b23d0c14610396578063e74b981b146103ca578063e7986466146103ea578063eb84e7f21461040a578063f2fde38b1461042a578063fe2510ee1461044a57600080fd5b80638456cb59146102fa5780638da5cb5b1461030f57806395ccea671461032d578063a22f23921461034d578063aedf2a4414610363578063be84e1e41461037657600080fd5b80634690484011610108578063469048401461020f5780634befe2ca146102475780634ebd25a51461025d5780635c975abb1461028a57806368c4ac26146102b5578063715018a6146102e557600080fd5b8063200201761461014557806334e181251461016757806334e19907146101a75780633da0e66e146101c75780633f4ba83a146101fa575b600080fd5b34801561015157600080fd5b50610165610160366004611be8565b61046a565b005b34801561017357600080fd5b50610194610182366004611c50565b60056020526000908152604090205481565b6040519081526020015b60405180910390f35b3480156101b357600080fd5b506101656101c2366004611c72565b610665565b3480156101d357600080fd5b506101e76101e2366004611c72565b6106f3565b60405161019e9796959493929190611cdb565b34801561020657600080fd5b5061016561087e565b34801561021b57600080fd5b5060045461022f906001600160a01b031681565b6040516001600160a01b03909116815260200161019e565b34801561025357600080fd5b506101946103e881565b34801561026957600080fd5b50610194610278366004611c50565b60066020526000908152604090205481565b34801561029657600080fd5b50600154600160a01b900460ff165b604051901515815260200161019e565b3480156102c157600080fd5b506102a56102d0366004611c50565b60026020526000908152604090205460ff1681565b3480156102f157600080fd5b50610165610890565b34801561030657600080fd5b506101656108a2565b34801561031b57600080fd5b506001546001600160a01b031661022f565b34801561033957600080fd5b50610165610348366004611d3c565b6108b2565b34801561035957600080fd5b5061019460035481565b610194610371366004611d66565b61092c565b34801561038257600080fd5b50610165610391366004611e03565b6110ab565b3480156103a257600080fd5b5061022f7f000000000000000000000000000000000000000000000000000000000000000081565b3480156103d657600080fd5b506101656103e5366004611c50565b611161565b3480156103f657600080fd5b50610165610405366004611e44565b611209565b34801561041657600080fd5b506101e7610425366004611c72565b611270565b34801561043657600080fd5b50610165610445366004611c50565b6113cf565b34801561045657600080fd5b50610165610465366004611c72565b611448565b61047261165f565b600083815260076020526040902060018101546104c75760405162461bcd60e51b815260206004820152600e60248201526d14ddd85c081b9bdd08199bdd5b9960921b60448201526064015b60405180910390fd5b600581015460ff16156105155760405162461bcd60e51b815260206004820152601660248201527514ddd85c08185b1c9958591e4818dbdb5c1b195d195960521b60448201526064016104be565b6005810154610100900460ff16156105675760405162461bcd60e51b815260206004820152601560248201527414ddd85c08185b1c9958591e481c99599d5b991959605a1b60448201526064016104be565b6040516306a5366560e01b81526001600160a01b037f000000000000000000000000000000000000000000000000000000000000000016906306a53665906105b790879087908790600401611ea4565b600060405180830381600087803b1580156105d157600080fd5b505af11580156105e5573d6000803e3d6000fd5b50505060058201805460ff1916600117905550604051339085907f67c5e8c220036ca487fa89b9dff6f3f23451eca70c0d39ec7be725290b29ff90906106319087908790602001611ec7565b60408051601f1981840301815290829052805160209182012082520160405180910390a3506106606001600055565b505050565b61066d6116b8565b6103e88111156106ae5760405162461bcd60e51b815260206004820152600c60248201526b08ccaca40e8dede40d0d2ced60a31b60448201526064016104be565b600380549082905560408051828152602081018490527f528d9479e9f9889a87a3c30c7f7ba537e5e59c4c85a37733b16e57c62df61302910160405180910390a15050565b600081815260076020526040812080546001820154600283015460058401546003850180548796879660609687968996879694956001600160a01b039485169593949092169291600487019160ff808216926101009092041690849061075890611ed7565b80601f016020809104026020016040519081016040528092919081815260200182805461078490611ed7565b80156107d15780601f106107a6576101008083540402835291602001916107d1565b820191906000526020600020905b8154815290600101906020018083116107b457829003601f168201915b505050505093508280546107e490611ed7565b80601f016020809104026020016040519081016040528092919081815260200182805461081090611ed7565b801561085d5780601f106108325761010080835404028352916020019161085d565b820191906000526020600020905b81548152906001019060200180831161084057829003601f168201915b50505050509250975097509750975097509750975050919395979092949650565b6108866116b8565b61088e611712565b565b6108986116b8565b61088e6000611767565b6108aa6116b8565b61088e6117b9565b6108ba6116b8565b6001600160a01b038216610902576001546040516001600160a01b039091169082156108fc029083906000818181858888f19350505050158015610660573d6000803e3d6000fd5b6109286109176001546001600160a01b031690565b6001600160a01b03841690836117fc565b5050565b600061093661165f565b61093e61185f565b6001600160a01b03891660009081526002602052604090205460ff168061096c57506001600160a01b038916155b6109ae5760405162461bcd60e51b8152602060048201526013602482015272151bdad95b881b9bdd081cdd5c1c1bdc9d1959606a1b60448201526064016104be565b600088116109fe5760405162461bcd60e51b815260206004820152601d60248201527f416d6f756e74206d7573742062652067726561746572207468616e203000000060448201526064016104be565b428611610a4d5760405162461bcd60e51b815260206004820152601e60248201527f54696d656c6f636b206d75737420626520696e2074686520667574757265000060448201526064016104be565b610a5a4262015180611f27565b861115610aa95760405162461bcd60e51b815260206004820152601a60248201527f54696d656c6f636b20746f6f2066617220696e2066757475726500000000000060448201526064016104be565b83610aee5760405162461bcd60e51b815260206004820152601560248201527415185c99d95d0818da185a5b881c995c5d5a5c9959605a1b60448201526064016104be565b81610b3b5760405162461bcd60e51b815260206004820152601760248201527f546172676574206164647265737320726571756972656400000000000000000060448201526064016104be565b6001600160a01b03891615610c29576001600160a01b038916600090815260056020526040902054881015610ba95760405162461bcd60e51b8152602060048201526014602482015273416d6f756e742062656c6f77206d696e696d756d60601b60448201526064016104be565b6001600160a01b0389166000908152600660205260409020541580610be657506001600160a01b0389166000908152600660205260409020548811155b610c295760405162461bcd60e51b8152602060048201526014602482015273416d6f756e742061626f7665206d6178696d756d60601b60448201526064016104be565b60006127106003548a610c3c9190611f40565b610c469190611f57565b90506000610c54828b611f79565b90506001600160a01b038b16610d8d57893414610caa5760405162461bcd60e51b8152602060048201526014602482015273125b98dbdc9c9958dd0811551208185b5bdd5b9d60621b60448201526064016104be565b60405163335ef5bd60e01b8152336004820152602481018a9052604481018990527f00000000000000000000000000000000000000000000000000000000000000006001600160a01b03169063335ef5bd90839060640160206040518083038185885af1158015610d1f573d6000803e3d6000fd5b50505050506040513d601f19601f82011682018060405250810190610d449190611f8c565b92508115610d88576004546040516001600160a01b039091169083156108fc029084906000818181858888f19350505050158015610d86573d6000803e3d6000fd5b505b610eec565b3415610de95760405162461bcd60e51b815260206004820152602560248201527f4e6f204554482073686f756c642062652073656e7420666f7220746f6b656e20604482015264737761707360d81b60648201526084016104be565b610dfe6001600160a01b038c1633308d6118ac565b610e326001600160a01b038c167f0000000000000000000000000000000000000000000000000000000000000000836117fc565b60405163335ef5bd60e01b8152336004820152602481018a9052604481018990527f00000000000000000000000000000000000000000000000000000000000000006001600160a01b03169063335ef5bd906064016020604051808303816000875af1158015610ea6573d6000803e3d6000fd5b505050506040513d601f19601f82011682018060405250810190610eca9190611f8c565b92508115610eec57600454610eec906001600160a01b038d81169116846117fc565b6040518060e001604052808c6001600160a01b03168152602001828152602001336001600160a01b0316815260200188888080601f016020809104026020016040519081016040528093929190818152602001838380828437600092019190915250505090825250604080516020601f8901819004810282018101909252878152918101919088908890819084018382808284376000920182905250938552505050602080830182905260409283018290528682526007815290829020835181546001600160a01b03199081166001600160a01b0392831617835592850151600183015592840151600282018054909316931692909217905560608201516003820190610ff99082612009565b506080820151600482019061100e9082612009565b5060a08201516005909101805460c09093015115156101000261ff00199215159290921661ffff19909316929092171790556040516001600160a01b038c1690339085907f0c919c9f3ac1cee4a9d3dca2d4a7f4f9788dffae5ebe8c0be2419a5d298083729061108b9086908f908f908f908f908f908f906120c9565b60405180910390a4505061109f6001600055565b98975050505050505050565b6110b36116b8565b8015806110c05750818110155b6110fd5760405162461bcd60e51b815260206004820152600e60248201526d496e76616c6964206c696d69747360901b60448201526064016104be565b6001600160a01b0383166000818152600560209081526040808320869055600682529182902084905581518581529081018490527f17136b4f1a90987ad12bc601de4522722b7ebaa4f5b1a613f229e99f025a220c910160405180910390a2505050565b6111696116b8565b6001600160a01b0381166111b75760405162461bcd60e51b8152602060048201526015602482015274125b9d985b1a5908199959481c9958da5c1a595b9d605a1b60448201526064016104be565b600480546001600160a01b038381166001600160a01b0319831681179093556040519116919082907faaebcf1bfa00580e41d966056b48521fa9f202645c86d4ddf28113e617c1b1d390600090a35050565b6112116116b8565b6001600160a01b038216600081815260026020908152604091829020805460ff191685151590811790915591519182527fbbe72b7d9dcb594ee398a4a617885aba53d833e2aad601c813ce9df99fdeb49b910160405180910390a25050565b60076020526000908152604090208054600182015460028301546003840180546001600160a01b0394851695939490921692916112ac90611ed7565b80601f01602080910402602001604051908101604052809291908181526020018280546112d890611ed7565b80156113255780601f106112fa57610100808354040283529160200191611325565b820191906000526020600020905b81548152906001019060200180831161130857829003601f168201915b50505050509080600401805461133a90611ed7565b80601f016020809104026020016040519081016040528092919081815260200182805461136690611ed7565b80156113b35780601f10611388576101008083540402835291602001916113b3565b820191906000526020600020905b81548152906001019060200180831161139657829003601f168201915b5050506005909301549192505060ff8082169161010090041687565b6113d76116b8565b6001600160a01b03811661143c5760405162461bcd60e51b815260206004820152602660248201527f4f776e61626c653a206e6577206f776e657220697320746865207a65726f206160448201526564647265737360d01b60648201526084016104be565b61144581611767565b50565b61145061165f565b600081815260076020526040902060018101546114a05760405162461bcd60e51b815260206004820152600e60248201526d14ddd85c081b9bdd08199bdd5b9960921b60448201526064016104be565b600581015460ff16156114ee5760405162461bcd60e51b815260206004820152601660248201527514ddd85c08185b1c9958591e4818dbdb5c1b195d195960521b60448201526064016104be565b6005810154610100900460ff16156115405760405162461bcd60e51b815260206004820152601560248201527414ddd85c08185b1c9958591e481c99599d5b991959605a1b60448201526064016104be565b60028101546001600160a01b0316331461159c5760405162461bcd60e51b815260206004820152601960248201527f4f6e6c7920696e69746961746f722063616e20726566756e640000000000000060448201526064016104be565b604051633924fddb60e11b8152600481018390527f00000000000000000000000000000000000000000000000000000000000000006001600160a01b031690637249fbb690602401600060405180830381600087803b1580156115fe57600080fd5b505af1158015611612573d6000803e3d6000fd5b50505060058201805461ff00191661010017905550604051339083907fc672feaa452bd52b0000f3d29c943cd9331556ab05529d49e984311220c16c1990600090a3506114456001600055565b6002600054036116b15760405162461bcd60e51b815260206004820152601f60248201527f5265656e7472616e637947756172643a207265656e7472616e742063616c6c0060448201526064016104be565b6002600055565b6001546001600160a01b0316331461088e5760405162461bcd60e51b815260206004820181905260248201527f4f776e61626c653a2063616c6c6572206973206e6f7420746865206f776e657260448201526064016104be565b61171a6118ea565b6001805460ff60a01b191690557f5db9ee0a495bf2e6ff9c91a7834c1ba4fdd244a5e8aa4e537bd38aeae4b073aa335b6040516001600160a01b03909116815260200160405180910390a1565b600180546001600160a01b038381166001600160a01b0319831681179093556040519116919082907f8be0079c531659141344cd1fd0a4f28419497f9722a3daafe3b4186f6b6457e090600090a35050565b6117c161185f565b6001805460ff60a01b1916600160a01b1790557f62e78cea01bee320cd4e420270b5ea74000d11b0c9f74754ebdbfc544b05a25861174a3390565b6040516001600160a01b03831660248201526044810182905261066090849063a9059cbb60e01b906064015b60408051601f198184030181529190526020810180516001600160e01b03166001600160e01b03199093169290921790915261193a565b600154600160a01b900460ff161561088e5760405162461bcd60e51b815260206004820152601060248201526f14185d5cd8589b194e881c185d5cd95960821b60448201526064016104be565b6040516001600160a01b03808516602483015283166044820152606481018290526118e49085906323b872dd60e01b90608401611828565b50505050565b600154600160a01b900460ff1661088e5760405162461bcd60e51b815260206004820152601460248201527314185d5cd8589b194e881b9bdd081c185d5cd95960621b60448201526064016104be565b600061198f826040518060400160405280602081526020017f5361666545524332303a206c6f772d6c6576656c2063616c6c206661696c6564815250856001600160a01b0316611a0f9092919063ffffffff16565b90508051600014806119b05750808060200190518101906119b09190612110565b6106605760405162461bcd60e51b815260206004820152602a60248201527f5361666545524332303a204552433230206f7065726174696f6e20646964206e6044820152691bdd081cdd58d8d9595960b21b60648201526084016104be565b6060611a1e8484600085611a26565b949350505050565b606082471015611a875760405162461bcd60e51b815260206004820152602660248201527f416464726573733a20696e73756666696369656e742062616c616e636520666f6044820152651c8818d85b1b60d21b60648201526084016104be565b600080866001600160a01b03168587604051611aa3919061212d565b60006040518083038185875af1925050503d8060008114611ae0576040519150601f19603f3d011682016040523d82523d6000602084013e611ae5565b606091505b5091509150611af687838387611b01565b979650505050505050565b60608315611b70578251600003611b69576001600160a01b0385163b611b695760405162461bcd60e51b815260206004820152601d60248201527f416464726573733a2063616c6c20746f206e6f6e2d636f6e747261637400000060448201526064016104be565b5081611a1e565b611a1e8383815115611b855781518083602001fd5b8060405162461bcd60e51b81526004016104be9190612149565b60008083601f840112611bb157600080fd5b50813567ffffffffffffffff811115611bc957600080fd5b602083019150836020828501011115611be157600080fd5b9250929050565b600080600060408486031215611bfd57600080fd5b83359250602084013567ffffffffffffffff811115611c1b57600080fd5b611c2786828701611b9f565b9497909650939450505050565b80356001600160a01b0381168114611c4b57600080fd5b919050565b600060208284031215611c6257600080fd5b611c6b82611c34565b9392505050565b600060208284031215611c8457600080fd5b5035919050565b60005b83811015611ca6578181015183820152602001611c8e565b50506000910152565b60008151808452611cc7816020860160208601611c8b565b601f01601f19169290920160200192915050565b6001600160a01b038881168252602082018890528616604082015260e060608201819052600090611d0e90830187611caf565b8281036080840152611d208187611caf565b94151560a0840152505090151560c09091015295945050505050565b60008060408385031215611d4f57600080fd5b611d5883611c34565b946020939093013593505050565b60008060008060008060008060c0898b031215611d8257600080fd5b611d8b89611c34565b9750602089013596506040890135955060608901359450608089013567ffffffffffffffff80821115611dbd57600080fd5b611dc98c838d01611b9f565b909650945060a08b0135915080821115611de257600080fd5b50611def8b828c01611b9f565b999c989b5096995094979396929594505050565b600080600060608486031215611e1857600080fd5b611e2184611c34565b95602085013595506040909401359392505050565b801515811461144557600080fd5b60008060408385031215611e5757600080fd5b611e6083611c34565b91506020830135611e7081611e36565b809150509250929050565b81835281816020850137506000828201602090810191909152601f909101601f19169091010190565b838152604060208201526000611ebe604083018486611e7b565b95945050505050565b8183823760009101908152919050565b600181811c90821680611eeb57607f821691505b602082108103611f0b57634e487b7160e01b600052602260045260246000fd5b50919050565b634e487b7160e01b600052601160045260246000fd5b80820180821115611f3a57611f3a611f11565b92915050565b8082028115828204841417611f3a57611f3a611f11565b600082611f7457634e487b7160e01b600052601260045260246000fd5b500490565b81810381811115611f3a57611f3a611f11565b600060208284031215611f9e57600080fd5b5051919050565b634e487b7160e01b600052604160045260246000fd5b601f82111561066057600081815260208120601f850160051c81016020861015611fe25750805b601f850160051c820191505b8181101561200157828155600101611fee565b505050505050565b815167ffffffffffffffff81111561202357612023611fa5565b612037816120318454611ed7565b84611fbb565b602080601f83116001811461206c57600084156120545750858301515b600019600386901b1c1916600185901b178555612001565b600085815260208120601f198616915b8281101561209b5788860151825594840194600190910190840161207c565b50858210156120b95787850151600019600388901b60f8161c191681555b5050505050600190811b01905550565b87815286602082015285604082015260a0606082015260006120ef60a083018688611e7b565b8281036080840152612102818587611e7b565b9a9950505050505050505050565b60006020828403121561212257600080fd5b8151611c6b81611e36565b6000825161213f818460208701611c8b565b9190910192915050565b602081526000611c6b6020830184611caf56fea2646970667358221220ca8470ec4017cbe414b175409bef83c80bf89246b8584c8103f2ff3a4c29e77b64736f6c63430008130033",
  "linkReferences": {},
  "deployedLinkReferences": {}
}