{
  "_format": "hh-sol-artifact-1",
  "contractName": "HashTimeLockContract",
  "sourceName": "contracts/HashTimeLockContract.sol",
  "abi": [
    {
      "anonymous": false,
      "inputs": [
        {
          "indexed": true,
          "internalType": "bytes32",
          "name": "contractId",
          "type": "bytes32"
        },
        {
          "indexed": true,
          "internalType": "address",
          "name": "sender",
          "type": "address"
        },
        {
          "indexed": true,
          "internalType": "address",
          "name": "receiver",
          "type": "address"
        },
        {
          "indexed": false,
          "internalType": "address",
          "name": "tokenContract",
          "type": "address"
        },
        {
          "indexed": false,
          "internalType": "uint256",
          "name": "amount",
          "type": "uint256"
        },
        {
          "indexed": false,
          "internalType": "bytes32",
          "name": "hashLock",
          "type": "bytes32"
        },
        {
          "indexed": false,
          "internalType": "uint256",
          "name": "timelock",
          "type": "uint256"
        }
      ],
      "name": "HTLCNew",
      "type": "event"
    },
    {
      "anonymous": false,
      "inputs": [
        {
          "indexed": true,
          "internalType": "bytes32",
          "name": "contractId",
          "type": "bytes32"
        },
        {
          "indexed": true,
          "internalType": "address",
          "name": "sender",
          "type": "address"
        }
      ],
      "name": "HTLCRefund",
      "type": "event"
    },
    {
      "anonymous": false,
      "inputs": [
        {
          "indexed": true,
          "internalType": "bytes32",
          "name": "contractId",
          "type": "bytes32"
        },
        {
          "indexed": true,
          "internalType": "address",
          "name": "receiver",
          "type": "address"
        },
        {
          "indexed": false,
          "internalType": "string",
          "name": "preimage",
          "type": "string"
        }
      ],
      "name": "HTLCWithdraw",
      "type": "event"
    },
    {
      "inputs": [
        {
          "internalType": "bytes32",
          "name": "",
          "type": "bytes32"
        }
      ],
      "name": "contracts",
      "outputs": [
        {
          "internalType": "address",
          "name": "sender",
          "type": "address"
        },
        {
          "internalType": "address",
          "name": "receiver",
          "type": "address"
        },
        {
          "internalType": "address",
          "name": "tokenContract",
          "type": "address"
        },
        {
          "internalType": "uint256",
          "name": "amount",
          "type": "uint256"
        },
        {
          "internalType": "bytes32",
          "name": "hashLock",
          "type": "bytes32"
        },
        {
          "internalType": "uint256",
          "name": "timelock",
          "type": "uint256"
        },
        {
          "internalType": "bool",
          "name": "withdrawn",
          "type": "bool"
        },
        {
          "internalType": "bool",
          "name": "refunded",
          "type": "bool"
        },
        {
          "internalType": "string",
          "name": "preimage",
          "type": "string"
        }
      ],
      "stateMutability": "view",
      "type": "function"
    },
    {
      "inputs": [
        {
          "internalType": "address",
          "name": "_tokenContract",
          "type": "address"
        },
        {
          "internalType": "uint256",
          "name": "_amount",
          "type": "uint256"
        }
      ],
      "name": "emergencyWithdraw",
      "outputs": [],
      "stateMutability": "nonpayable",
      "type": "function"
    },
    {
      "inputs": [
        {
          "internalType": "bytes32",
          "name": "_contractId",
          "type": "bytes32"
        }
      ],
      "name": "getContract",
      "outputs": [
        {
          "internalType": "address",
          "name": "sender",
          "type": "address"
        },
        {
          "internalType": "address",
          "name": "receiver",
          "type": "address"
        },
        {
          "internalType": "address",
          "name": "tokenContract",
          "type": "address"
        },
        {
          "internalType": "uint256",
          "name": "amount",
          "type": "uint256"
        },
        {
          "internalType": "bytes32",
          "name": "hashLock",
          "type": "bytes32"
        },
        {
          "internalType": "uint256",
          "name": "timelock",
          "type": "uint256"
        },
        {
          "internalType": "bool",
          "name": "withdrawn",
          "type": "bool"
        },
        {
          "internalType": "bool",
          "name": "refunded",
          "type": "bool"
        },
        {
          "internalType": "string",
          "name": "preimage",
          "type": "string"
        }
      ],
      "stateMutability": "view",
      "type": "function"
    },
    {
      "inputs": [
        {
          "internalType": "bytes32",
          "name": "_contractId",
          "type": "bytes32"
        }
      ],
      "name": "getContractStatus",
      "outputs": [
        {
          "internalType": "uint8",
          "name": "status",
          "type": "uint8"
        }
      ],
      "stateMutability": "view",
      "type": "function"
    },
    {
      "inputs": [
        {
          "internalType": "address",
          "name": "_user",
          "type": "address"
        }
      ],
      "name": "getUserContracts",
      "outputs": [
        {
          "internalType": "bytes32[]",
          "name": "contractIds",
          "type": "bytes32[]"
        }
      ],
      "stateMutability": "view",
      "type": "function"
    },
    {
      "inputs": [
        {
          "internalType": "bytes32",
          "name": "_contractId",
          "type": "bytes32"
        }
      ],
      "name": "hasContract",
      "outputs": [
        {
          "internalType": "bool",
          "name": "exists",
          "type": "bool"
        }
      ],
      "stateMutability": "view",
      "type": "function"
    },
    {
      "inputs": [
        {
          "internalType": "address",
          "name": "_receiver",
          "type": "address"
        },
        {
          "internalType": "bytes32",
          "name": "_hashLock",
          "type": "bytes32"
        },
        {
          "internalType": "uint256",
          "name": "_timelock",
          "type": "uint256"
        }
      ],
      "name": "newContract",
      "outputs": [
        {
          "internalType": "bytes32",
          "name": "contractId",
          "type": "bytes32"
        }
      ],
      "stateMutability": "payable",
      "type": "function"
    },
    {
      "inputs": [
        {
          "internalType": "address",
          "name": "_receiver",
          "type": "address"
        },
        {
          "internalType": "bytes32",
          "name": "_hashLock",
          "type": "bytes32"
        },
        {
          "internalType": "uint256",
          "name": "_timelock",
          "type": "uint256"
        },
        {
          "internalType": "address",
          "name": "_tokenContract",
          "type": "address"
        },
        {
          "internalType": "uint256",
          "name": "_amount",
          "type": "uint256"
        }
      ],
      "name": "newContractERC20",
      "outputs": [
        {
          "internalType": "bytes32",
          "name": "contractId",
          "type": "bytes32"
        }
      ],
      "stateMutability": "nonpayable",
      "type": "function"
    },
    {
      "inputs": [
        {
          "internalType": "bytes32",
          "name": "_contractId",
          "type": "bytes32"
        }
      ],
      "name": "refund",
      "outputs": [],
      "stateMutability": "nonpayable",
      "type": "function"
    },
    {
      "inputs": [
        {
          "internalType": "address",
          "name": "",
          "type": "address"
        },
        {
          "internalType": "uint256",
          "name": "",
          "type": "uint256"
        }
      ],
      "name": "userContracts",
      "outputs": [
        {
          "internalType": "bytes32",
          "name": "",
          "type": "bytes32"
        }
      ],
      "stateMutability": "view",
      "type": "function"
    },
    {
      "inputs": [
        {
          "internalType": "bytes32",
          "name": "_contractId",
          "type": "bytes32"
        },
        {
          "internalType": "string",
          "name": "_preimage",
          "type": "string"
        }
      ],
      "name": "withdraw",
      "outputs": [],
      "stateMutability": "nonpayable",
      "type": "function"
    }
  ],
  "bytecode": "0x608060405234801561001057600080fd5b506001600055611a2e806100256000396000f3fe60806040526004361061009c5760003560e01c806395ccea671161006457806395ccea6714610168578063ad0aa0e414610188578063b789003d146101b8578063d546e7c3146101d8578063e16c7d98146101f8578063ec56a3731461022d57600080fd5b806306a53665146100a1578063335ef5bd146100c357806334c925f0146100e95780637249fbb6146101165780637f814c6e14610136575b600080fd5b3480156100ad57600080fd5b506100c16100bc3660046115ab565b61024d565b005b6100d66100d1366004611682565b61055e565b6040519081526020015b60405180910390f35b3480156100f557600080fd5b506101096101043660046116b5565b61082e565b6040516100e091906116d7565b34801561012257600080fd5b506100c161013136600461171b565b61089a565b34801561014257600080fd5b5061015661015136600461171b565b610b4c565b60405160ff90911681526020016100e0565b34801561017457600080fd5b506100c1610183366004611734565b610bbf565b34801561019457600080fd5b506101a86101a336600461171b565b610c52565b60405190151581526020016100e0565b3480156101c457600080fd5b506100d66101d3366004611734565b610c6f565b3480156101e457600080fd5b506100d66101f336600461175e565b610ca0565b34801561020457600080fd5b5061021861021336600461171b565b610ff7565b6040516100e0999897969594939291906117fc565b34801561023957600080fd5b5061021861024836600461171b565b611149565b8161025781610c52565b6102a25760405162461bcd60e51b815260206004820152601760248201527610dbdb9d1c9858dd08191bd95cc81b9bdd08195e1a5cdd604a1b60448201526064015b60405180910390fd5b8282806040516020016102b59190611867565b60408051601f19818403018152918152815160209283012060008581526001909352912060040154146103345760405162461bcd60e51b815260206004820152602160248201527f48617368206c6f636b20646f6573206e6f74206d6174636820707265696d61676044820152606560f81b6064820152608401610299565b6000858152600160208190526040909120015485906001600160a01b031633146103a05760405162461bcd60e51b815260206004820152601a60248201527f4e6f7420617574686f72697a656420746f2077697468647261770000000000006044820152606401610299565b60008181526001602052604090206006015460ff16156103f65760405162461bcd60e51b815260206004820152601160248201527020b63932b0b23c903bb4ba34323930bbb760791b6044820152606401610299565b600081815260016020526040902060050154421061044d5760405162461bcd60e51b8152602060048201526014602482015273151a5b595b1bd8dac81a185cc8195e1c1a5c995960621b6044820152606401610299565b610455611236565b6000868152600160205260409020600781016104718782611903565b5060068101805460ff1916600117905560028101546001600160a01b03166104d957600181015460038201546040516001600160a01b039092169181156108fc0291906000818181858888f193505050501580156104d3573d6000803e3d6000fd5b50610500565b600181015460038201546002830154610500926001600160a01b039182169291169061128f565b60018101546040516001600160a01b039091169088907ff21cbfe082f72b6e44dfc458999d2862b8a01363646b1c1d14ca9458c02bdf9f90610543908a906119c3565b60405180910390a3506105566001600055565b505050505050565b600080341161059f5760405162461bcd60e51b815260206004820152600d60248201526c139bc8199d5b991cc81cd95b9d609a1b6044820152606401610299565b814281116105ef5760405162461bcd60e51b815260206004820152601e60248201527f54696d656c6f636b206d75737420626520696e207468652066757475726500006044820152606401610299565b6040516bffffffffffffffffffffffff1933606090811b8216602084015287901b166034820152346048820152606881018590526088810184905260a80160405160208183030381529060405280519060200120915061064e82610c52565b156106955760405162461bcd60e51b8152602060048201526017602482015276436f6e747261637420616c72656164792065786973747360481b6044820152606401610299565b60408051610120810182523381526001600160a01b03878116602080840191825260008486018181523460608701908152608087018c815260a088018c815260c0890185815260e08a018681528b518089018d52878152610100808d019182528f89526001998a90529c9097208b5181546001600160a01b0319908116918d16919091178255995198810180548b16998c1699909917909855945160028801805490991699169890981790965590516003850155516004840155925160058301559251600682018054935161ffff1990941691151561ff00191691909117921515909502919091179093555190919060078201906107939082611903565b5050336000818152600260209081526040808320805460018082018355918552838520018890556001600160a01b038b1680855282852080549283018155855283852090910188905581519384523492840192909252820188905260608201879052925084907fce16d8090a7d17682dd9db16538815051686d4349ca533d4895c3bf4df93db839060800160405180910390a4509392505050565b6001600160a01b03811660009081526002602090815260409182902080548351818402810184019094528084526060939283018282801561088e57602002820191906000526020600020905b81548152602001906001019080831161087a575b50505050509050919050565b806108a481610c52565b6108ea5760405162461bcd60e51b815260206004820152601760248201527610dbdb9d1c9858dd08191bd95cc81b9bdd08195e1a5cdd604a1b6044820152606401610299565b60008281526001602052604090205482906001600160a01b031633146109525760405162461bcd60e51b815260206004820152601860248201527f4e6f7420617574686f72697a656420746f20726566756e6400000000000000006044820152606401610299565b600081815260016020526040902060060154610100900460ff16156109ac5760405162461bcd60e51b815260206004820152601060248201526f105b1c9958591e481c99599d5b99195960821b6044820152606401610299565b60008181526001602052604090206006015460ff1615610a025760405162461bcd60e51b815260206004820152601160248201527020b63932b0b23c903bb4ba34323930bbb760791b6044820152606401610299565b600081815260016020526040902060050154421015610a635760405162461bcd60e51b815260206004820152601860248201527f54696d656c6f636b206e6f7420796574206578706972656400000000000000006044820152606401610299565b610a6b611236565b600083815260016020526040902060068101805461ff00191661010017905560028101546001600160a01b0316610adf57805460038201546040516001600160a01b039092169181156108fc0291906000818181858888f19350505050158015610ad9573d6000803e3d6000fd5b50610b03565b805460038201546002830154610b03926001600160a01b039182169291169061128f565b80546040516001600160a01b039091169085907faa5c3e64c51203f9c584024f51e6b65f9cd1e5b3627fc0fe8a7e26900a5ecafa90600090a350610b476001600055565b505050565b6000610b5782610c52565b610b6357506000919050565b6000828152600160205260409020600681015460ff1615610b875750600292915050565b6006810154610100900460ff1615610ba25750600392915050565b80600501544210610bb65750600492915050565b50600192915050565b333014610bff5760405162461bcd60e51b815260206004820152600e60248201526d139bdd08185d5d1a1bdc9a5e995960921b6044820152606401610299565b6001600160a01b038216610c3a57604051339082156108fc029083906000818181858888f19350505050158015610b47573d6000803e3d6000fd5b610c4e6001600160a01b038316338361128f565b5050565b6000908152600160205260409020546001600160a01b0316151590565b60026020528160005260406000208181548110610c8b57600080fd5b90600052602060002001600091509150505481565b600083428111610cf25760405162461bcd60e51b815260206004820152601e60248201527f54696d656c6f636b206d75737420626520696e207468652066757475726500006044820152606401610299565b60008311610d425760405162461bcd60e51b815260206004820152601d60248201527f416d6f756e74206d7573742062652067726561746572207468616e20300000006044820152606401610299565b6001600160a01b038416610d915760405162461bcd60e51b8152602060048201526016602482015275125b9d985b1a59081d1bdad95b8818dbdb9d1c9858dd60521b6044820152606401610299565b6040516bffffffffffffffffffffffff1933606090811b8216602084015289811b8216603484015260488301869052606883018990526088830188905286901b1660a882015260bc01604051602081830303815290604052805190602001209150610dfb82610c52565b15610e425760405162461bcd60e51b8152602060048201526017602482015276436f6e747261637420616c72656164792065786973747360481b6044820152606401610299565b610e576001600160a01b0385163330866112f2565b60408051610120810182523381526001600160a01b03898116602080840191825288831684860190815260608501898152608086018d815260a087018d8152600060c0890181815260e08a018281528b518089018d52838152610100808d019182528f85526001998a90529c9093208b518154908c166001600160a01b031991821617825599519881018054998c16998b1699909917909855955160028801805491909a169816979097179097559151600385015551600484015551600583015591516006820180549351151590960261ff00199115159190911661ffff199093169290921791909117909355519091906007820190610f579082611903565b5050336000818152600260209081526040808320805460018082018355918552838520018890556001600160a01b038d8116808652838620805493840181558652948490209091018890558151908a16815291820188905281018a90526060810189905290925084907fce16d8090a7d17682dd9db16538815051686d4349ca533d4895c3bf4df93db839060800160405180910390a45095945050505050565b600080600080600080600080606061100e8a610c52565b1515600003611044575050604080516020810190915260008082529750879650869550859450849350839250829150819061113c565b60008a81526001602081905260409091208054918101546002820154600383015460048401546005850154600686015460078701805497986001600160a01b03908116989781169796169560ff80841693610100900416919081906110a890611883565b80601f01602080910402602001604051908101604052809291908181526020018280546110d490611883565b80156111215780601f106110f657610100808354040283529160200191611121565b820191906000526020600020905b81548152906001019060200180831161110457829003601f168201915b50505050509050995099509950995099509950995099509950505b9193959799909294969850565b6001602081905260009182526040909120805491810154600282015460038301546004840154600585015460068601546007870180546001600160a01b03998a169997881698979096169694959394929360ff80841694610100909404169291906111b390611883565b80601f01602080910402602001604051908101604052809291908181526020018280546111df90611883565b801561122c5780601f106112015761010080835404028352916020019161122c565b820191906000526020600020905b81548152906001019060200180831161120f57829003601f168201915b5050505050905089565b6002600054036112885760405162461bcd60e51b815260206004820152601f60248201527f5265656e7472616e637947756172643a207265656e7472616e742063616c6c006044820152606401610299565b6002600055565b6040516001600160a01b038316602482015260448101829052610b4790849063a9059cbb60e01b906064015b60408051601f198184030181529190526020810180516001600160e01b03166001600160e01b031990931692909217909152611330565b6040516001600160a01b038085166024830152831660448201526064810182905261132a9085906323b872dd60e01b906084016112bb565b50505050565b6000611385826040518060400160405280602081526020017f5361666545524332303a206c6f772d6c6576656c2063616c6c206661696c6564815250856001600160a01b03166114059092919063ffffffff16565b90508051600014806113a65750808060200190518101906113a691906119d6565b610b475760405162461bcd60e51b815260206004820152602a60248201527f5361666545524332303a204552433230206f7065726174696f6e20646964206e6044820152691bdd081cdd58d8d9595960b21b6064820152608401610299565b6060611414848460008561141c565b949350505050565b60608247101561147d5760405162461bcd60e51b815260206004820152602660248201527f416464726573733a20696e73756666696369656e742062616c616e636520666f6044820152651c8818d85b1b60d21b6064820152608401610299565b600080866001600160a01b031685876040516114999190611867565b60006040518083038185875af1925050503d80600081146114d6576040519150601f19603f3d011682016040523d82523d6000602084013e6114db565b606091505b50915091506114ec878383876114f7565b979650505050505050565b6060831561156657825160000361155f576001600160a01b0385163b61155f5760405162461bcd60e51b815260206004820152601d60248201527f416464726573733a2063616c6c20746f206e6f6e2d636f6e74726163740000006044820152606401610299565b5081611414565b611414838381511561157b5781518083602001fd5b8060405162461bcd60e51b815260040161029991906119c3565b634e487b7160e01b600052604160045260246000fd5b600080604083850312156115be57600080fd5b82359150602083013567ffffffffffffffff808211156115dd57600080fd5b818501915085601f8301126115f157600080fd5b81358181111561160357611603611595565b604051601f8201601f19908116603f0116810190838211818310171561162b5761162b611595565b8160405282815288602084870101111561164457600080fd5b8260208601602083013760006020848301015280955050505050509250929050565b80356001600160a01b038116811461167d57600080fd5b919050565b60008060006060848603121561169757600080fd5b6116a084611666565b95602085013595506040909401359392505050565b6000602082840312156116c757600080fd5b6116d082611666565b9392505050565b6020808252825182820181905260009190848201906040850190845b8181101561170f578351835292840192918401916001016116f3565b50909695505050505050565b60006020828403121561172d57600080fd5b5035919050565b6000806040838503121561174757600080fd5b61175083611666565b946020939093013593505050565b600080600080600060a0868803121561177657600080fd5b61177f86611666565b9450602086013593506040860135925061179b60608701611666565b949793965091946080013592915050565b60005b838110156117c75781810151838201526020016117af565b50506000910152565b600081518084526117e88160208601602086016117ac565b601f01601f19169290920160200192915050565b6001600160a01b038a81168252898116602083015288166040820152606081018790526080810186905260a0810185905283151560c082015282151560e08201526101206101008201819052600090611857838201856117d0565b9c9b505050505050505050505050565b600082516118798184602087016117ac565b9190910192915050565b600181811c9082168061189757607f821691505b6020821081036118b757634e487b7160e01b600052602260045260246000fd5b50919050565b601f821115610b4757600081815260208120601f850160051c810160208610156118e45750805b601f850160051c820191505b81811015610556578281556001016118f0565b815167ffffffffffffffff81111561191d5761191d611595565b6119318161192b8454611883565b846118bd565b602080601f831160018114611966576000841561194e5750858301515b600019600386901b1c1916600185901b178555610556565b600085815260208120601f198616915b8281101561199557888601518255948401946001909101908401611976565b50858210156119b35787850151600019600388901b60f8161c191681555b5050505050600190811b01905550565b6020815260006116d060208301846117d0565b6000602082840312156119e857600080fd5b815180151581146116d057600080fdfea2646970667358221220e2d250e4deb02daec39c5eae5c0fdb05d8a5c8cbf44463e8ab33d74a826c256c64736f6c63430008130033",
  "linkReferences": {},
  "deployedLinkReferences": {}
}